{
  "transactions": [
    {
      "hash": "0x7a9bda2e0f675d43c9998320a19c22c909b2321482c09c12cf25bf7de78d06e0",
      "transactionType": "CALL",
      "contractName": null,
      "contractAddress": "0x8c85a0c0d19be8d163c492451779a2cecc81da9c",
      "function": "mintNFT(string)",
      "arguments": [
        "ipfs://QmeSjSinHpPnmXmspMjwiXyN6zS4E9zccariGR3jxcaWtq/1570"
      ],
      "transaction": {
        "from": "0xe9ea8b6c38647db018a37f1db89303522c3f860c",
        "to": "0x8c85a0c0d19be8d163c492451779a2cecc81da9c",
        "gas": "0x2ee7f",
        "value": "0x0",
        "input": "0xfb37e8830000000000000000000000000000000000000000000000000000000000000020000000000000000000000000000000000000000000000000000000000000003a697066733a2f2f516d65536a53696e4870506e6d586d73704d6a776958794e367a533445397a63636172694752336a7863615774712f31353730000000000000",
        "nonce": "0x5f",
        "chainId": "0xa869"
      },
      "additionalContracts": [],
      "isFixedGasLimit": false
    },
    {
      "hash": "0x89488a0fbe61d797cbe1d0832a80eac0a7ecdb87b8409c6f63c898f91158e6dd",
      "transactionType": "CALL",
      "contractName": null,
      "contractAddress": "0x8c85a0c0d19be8d163c492451779a2cecc81da9c",
      "function": "approve(address,uint256)",
      "arguments": [
        "0x3213EB712A2A97E06E9F13a1349ad49FA4331443",
        "1"
      ],
      "transaction": {
        "from": "0xe9ea8b6c38647db018a37f1db89303522c3f860c",
        "to": "0x8c85a0c0d19be8d163c492451779a2cecc81da9c",
        "gas": "0x1240d",
        "value": "0x0",
        "input": "0x095ea7b30000000000000000000000003213eb712a2a97e06e9f13a1349ad49fa43314430000000000000000000000000000000000000000000000000000000000000001",
        "nonce": "0x60",
        "chainId": "0xa869"
      },
      "additionalContracts": [],
      "isFixedGasLimit": false
    },
    {
      "hash": "0xd1ab5b24c28db5e0eaa598ce0bb87ef44f3b7b85e284883f4afb8c9601d1759d",
      "transactionType": "CALL",
      "contractName": null,
      "contractAddress": "0x3213eb712a2a97e06e9f13a1349ad49fa4331443",
      "function": "offerMany(address,uint256[],uint256[])",
      "arguments": [
        "0x8c85a0C0D19BE8d163C492451779A2CECC81Da9c",
        "[1]",
        "[15300000]"
      ],
      "transaction": {
        "from": "0xe9ea8b6c38647db018a37f1db89303522c3f860c",
        "to": "0x3213eb712a2a97e06e9f13a1349ad49fa4331443",
        "gas": "0x198b2",
        "value": "0x0",
        "input": "0x6c039efa0000000000000000000000008c85a0c0d19be8d163c492451779a2cecc81da9c000000000000000000000000000000000000000000000000000000000000006000000000000000000000000000000000000000000000000000000000000000a00000000000000000000000000000000000000000000000000000000000000001000000000000000000000000000000000000000000000000000000000000000100000000000000000000000000000000000000000000000000000000000000010000000000000000000000000000000000000000000000000000000000e975a0",
        "nonce": "0x61",
        "chainId": "0xa869"
      },
      "additionalContracts": [],
      "isFixedGasLimit": false
    }
  ],
  "receipts": [
    {
      "status": "0x1",
      "cumulativeGasUsed": "0x20129",
      "logs": [
        {
          "address": "0x8c85a0c0d19be8d163c492451779a2cecc81da9c",
          "topics": [
            "0xddf252ad1be2c89b69c2b068fc378daa952ba7f163c4a11628f55a4df523b3ef",
            "0x0000000000000000000000000000000000000000000000000000000000000000",
            "0x000000000000000000000000e9ea8b6c38647db018a37f1db89303522c3f860c",
            "0x0000000000000000000000000000000000000000000000000000000000000001"
          ],
          "data": "0x",
          "blockHash": "0xdea9c2fae7c0db30f58723741bbd85acbaf9453899feaa8ef395896189ea55db",
          "blockNumber": "0x2c2f6c3",
          "transactionHash": "0x7a9bda2e0f675d43c9998320a19c22c909b2321482c09c12cf25bf7de78d06e0",
          "transactionIndex": "0x0",
          "logIndex": "0x0",
          "removed": false
        }
      ],
      "logsBloom": "0x00000000080000000000000000001000000000000000000000000000000000000000000000000000000000000000000200000000000000000000000000040000000000000000000000000008000000000000000000040000000000000000000000000000020000000000000000000800000000000000000000000010000000000000000000000000000000000000000000000200000000000000000000000000000000000000000000000000000000000000000000000000000000000000000000000002000000000000000000000000000000000000000000000800000060000010000000000000000000000000000000000000000000000000000000000000",
      "type": "0x2",
      "transactionHash": "0x7a9bda2e0f675d43c9998320a19c22c909b2321482c09c12cf25bf7de78d06e0",
      "transactionIndex": "0x0",
      "blockHash": "0xdea9c2fae7c0db30f58723741bbd85acbaf9453899feaa8ef395896189ea55db",
      "blockNumber": "0x2c2f6c3",
      "gasUsed": "0x20129",
      "effectiveGasPrice": "0x2",
      "from": "0xe9ea8b6c38647db018a37f1db89303522c3f860c",
      "to": "0x8c85a0c0d19be8d163c492451779a2cecc81da9c",
      "contractAddress": null
    },
    {
      "status": "0x1",
      "cumulativeGasUsed": "0x2c8db",
      "logs": [
        {
          "address": "0x8c85a0c0d19be8d163c492451779a2cecc81da9c",
          "topics": [
            "0x8c5be1e5ebec7d5bd14f71427d1e84f3dd0314c0f7b2291e5b200ac8c7c3b925",
            "0x000000000000000000000000e9ea8b6c38647db018a37f1db89303522c3f860c",
            "0x0000000000000000000000003213eb712a2a97e06e9f13a1349ad49fa4331443",
            "0x0000000000000000000000000000000000000000000000000000000000000001"
          ],
          "data": "0x",
          "blockHash": "0xdea9c2fae7c0db30f58723741bbd85acbaf9453899feaa8ef395896189ea55db",
          "blockNumber": "0x2c2f6c3",
          "transactionHash": "0x89488a0fbe61d797cbe1d0832a80eac0a7ecdb87b8409c6f63c898f91158e6dd",
          "transactionIndex": "0x1",
          "logIndex": "0x1",
          "removed": false
        }
      ],
      "logsBloom": "0x00000000080000000000000000001000000000000000000000000000000000000000000000000000000000000000000200000000000000000000000000240000000000000000000000000000000000000000000200040000000000000004000000000000000000000000000000000000000000000000000000000000000000000000000000000000000000000000000000000200000000000000000000000000020000000000000000000000000000000000000000000000000000000000000000000000000000000000000000000002000000000000000000000800000040000010000000000000000000000000000000000000000000000000000000000000",
      "type": "0x2",
      "transactionHash": "0x89488a0fbe61d797cbe1d0832a80eac0a7ecdb87b8409c6f63c898f91158e6dd",
      "transactionIndex": "0x1",
      "blockHash": "0xdea9c2fae7c0db30f58723741bbd85acbaf9453899feaa8ef395896189ea55db",
      "blockNumber": "0x2c2f6c3",
      "gasUsed": "0xc7b2",
      "effectiveGasPrice": "0x2",
      "from": "0xe9ea8b6c38647db018a37f1db89303522c3f860c",
      "to": "0x8c85a0c0d19be8d163c492451779a2cecc81da9c",
      "contractAddress": null
    },
    {
      "status": "0x1",
      "cumulativeGasUsed": "0x3fbaf",
      "logs": [
        {
          "address": "0x3213eb712a2a97e06e9f13a1349ad49fa4331443",
          "topics": [
            "0xd547e933094f12a9159076970143ebe73234e64480317844b0dcb36117116de4",
            "0x000000000000000000000000e9ea8b6c38647db018a37f1db89303522c3f860c",
            "0x0000000000000000000000008c85a0c0d19be8d163c492451779a2cecc81da9c",
            "0x0000000000000000000000000000000000000000000000000000000000000001"
          ],
          "data": "0x0000000000000000000000000000000000000000000000000000000000e975a0",
          "blockHash": "0xdea9c2fae7c0db30f58723741bbd85acbaf9453899feaa8ef395896189ea55db",
          "blockNumber": "0x2c2f6c3",
          "transactionHash": "0xd1ab5b24c28db5e0eaa598ce0bb87ef44f3b7b85e284883f4afb8c9601d1759d",
          "transactionIndex": "0x2",
          "logIndex": "0x2",
          "removed": false
        }
      ],
      "logsBloom": "0x00000000000000000000000000001000000000000000000000000000000000000000000000000000000000000000000000000000000000400000000000044004000000000000000000000000000000000000000000040000000000000000000000000002000000000000000000000000000000000000000000000000000000000000000000800000000000000000000000000000000000000400000000000002000000000000000000000000000001000000000000000000000000000000000000000000000000000000000000000000000000000000000000000800000040000010000000000000000000000000000000000000000000000000010000000000",
      "type": "0x2",
      "transactionHash": "0xd1ab5b24c28db5e0eaa598ce0bb87ef44f3b7b85e284883f4afb8c9601d1759d",
      "transactionIndex": "0x2",
      "blockHash": "0xdea9c2fae7c0db30f58723741bbd85acbaf9453899feaa8ef395896189ea55db",
      "blockNumber": "0x2c2f6c3",
      "gasUsed": "0x132d4",
      "effectiveGasPrice": "0x2",
      "from": "0xe9ea8b6c38647db018a37f1db89303522c3f860c",
      "to": "0x3213eb712a2a97e06e9f13a1349ad49fa4331443",
      "contractAddress": null
    }
  ],
  "libraries": [],
  "pending": [],
  "returns": {},
  "timestamp": 1758791922724,
  "chain": 43113,
  "commit": "31e294b"
}