{
  "transactions": [
    {
      "hash": "0x5959decf63d8a5228bc0fb850383e0a83ef6386b90478a42344ddadfc4444799",
      "transactionType": "CALL",
      "contractName": null,
      "contractAddress": "0xc84133c9e85f09aac39b6dcaa2d43415801f1c5f",
      "function": "mint()",
      "arguments": [],
      "transaction": {
        "from": "0xe9ea8b6c38647db018a37f1db89303522c3f860c",
        "to": "0xc84133c9e85f09aac39b6dcaa2d43415801f1c5f",
        "gas": "0x14ddb",
        "value": "0x0",
        "input": "0x1249c58b",
        "nonce": "0x4f",
        "chainId": "0xa869"
      },
      "additionalContracts": [],
      "isFixedGasLimit": false
    },
    {
      "hash": "0xad1b7b2afce5cb89b0535c64edd8a70411200d13171798942164284be1b429bf",
      "transactionType": "CALL",
      "contractName": null,
      "contractAddress": "0xc84133c9e85f09aac39b6dcaa2d43415801f1c5f",
      "function": "approve(address,uint256)",
      "arguments": [
        "0x3213EB712A2A97E06E9F13a1349ad49FA4331443",
        "2"
      ],
      "transaction": {
        "from": "0xe9ea8b6c38647db018a37f1db89303522c3f860c",
        "to": "0xc84133c9e85f09aac39b6dcaa2d43415801f1c5f",
        "gas": "0x113f2",
        "value": "0x0",
        "input": "0x095ea7b30000000000000000000000003213eb712a2a97e06e9f13a1349ad49fa43314430000000000000000000000000000000000000000000000000000000000000002",
        "nonce": "0x50",
        "chainId": "0xa869"
      },
      "additionalContracts": [],
      "isFixedGasLimit": false
    },
    {
      "hash": "0xfcffa6e7fb6f4eadfa0a3081a97b6882737303f2d4bff02847ca508472b99047",
      "transactionType": "CALL",
      "contractName": null,
      "contractAddress": "0x3213eb712a2a97e06e9f13a1349ad49fa4331443",
      "function": "offerMany(address,uint256[],uint256[])",
      "arguments": [
        "0xc84133c9E85F09aac39b6dCAA2d43415801F1c5f",
        "[2]",
        "[10000000]"
      ],
      "transaction": {
        "from": "0xe9ea8b6c38647db018a37f1db89303522c3f860c",
        "to": "0x3213eb712a2a97e06e9f13a1349ad49fa4331443",
        "gas": "0x1b0dd",
        "value": "0x0",
        "input": "0x6c039efa000000000000000000000000c84133c9e85f09aac39b6dcaa2d43415801f1c5f000000000000000000000000000000000000000000000000000000000000006000000000000000000000000000000000000000000000000000000000000000a00000000000000000000000000000000000000000000000000000000000000001000000000000000000000000000000000000000000000000000000000000000200000000000000000000000000000000000000000000000000000000000000010000000000000000000000000000000000000000000000000000000000989680",
        "nonce": "0x51",
        "chainId": "0xa869"
      },
      "additionalContracts": [],
      "isFixedGasLimit": false
    }
  ],
  "receipts": [
    {
      "status": "0x1",
      "cumulativeGasUsed": "0x195dc",
      "logs": [
        {
          "address": "0xc84133c9e85f09aac39b6dcaa2d43415801f1c5f",
          "topics": [
            "0xddf252ad1be2c89b69c2b068fc378daa952ba7f163c4a11628f55a4df523b3ef",
            "0x0000000000000000000000000000000000000000000000000000000000000000",
            "0x000000000000000000000000e9ea8b6c38647db018a37f1db89303522c3f860c",
            "0x0000000000000000000000000000000000000000000000000000000000000003"
          ],
          "data": "0x",
          "blockHash": "0xb9f2d8c9388d1eff1bac6bbbdcf9c9756ecccccfec36b052a98ee53e5c7bd006",
          "blockNumber": "0x2c2e068",
          "transactionHash": "0x5959decf63d8a5228bc0fb850383e0a83ef6386b90478a42344ddadfc4444799",
          "transactionIndex": "0x1",
          "logIndex": "0x0",
          "removed": false
        }
      ],
      "logsBloom": "0x00000000000000000000000000001000000000000000000000000000000000000000000000000000000000000000000000000000020000000000000000000000000000000000000000000008000000000000000000000000000000000000000000000000020000000000000000000800000000000000000000000010000010000000000000000000000000000000000000000000000000000000000000000000000000000000000000000000000000000000000000800000000000000000400000000002000000000004000000000000000000000000000000000800000020000010000000000000000000000000000000000000000000000000000000000080",
      "type": "0x2",
      "transactionHash": "0x5959decf63d8a5228bc0fb850383e0a83ef6386b90478a42344ddadfc4444799",
      "transactionIndex": "0x1",
      "blockHash": "0xb9f2d8c9388d1eff1bac6bbbdcf9c9756ecccccfec36b052a98ee53e5c7bd006",
      "blockNumber": "0x2c2e068",
      "gasUsed": "0xf1b5",
      "effectiveGasPrice": "0x2",
      "from": "0xe9ea8b6c38647db018a37f1db89303522c3f860c",
      "to": "0xc84133c9e85f09aac39b6dcaa2d43415801f1c5f",
      "contractAddress": null
    },
    {
      "status": "0x1",
      "cumulativeGasUsed": "0x25da4",
      "logs": [
        {
          "address": "0xc84133c9e85f09aac39b6dcaa2d43415801f1c5f",
          "topics": [
            "0x8c5be1e5ebec7d5bd14f71427d1e84f3dd0314c0f7b2291e5b200ac8c7c3b925",
            "0x000000000000000000000000e9ea8b6c38647db018a37f1db89303522c3f860c",
            "0x0000000000000000000000003213eb712a2a97e06e9f13a1349ad49fa4331443",
            "0x0000000000000000000000000000000000000000000000000000000000000002"
          ],
          "data": "0x",
          "blockHash": "0xb9f2d8c9388d1eff1bac6bbbdcf9c9756ecccccfec36b052a98ee53e5c7bd006",
          "blockNumber": "0x2c2e068",
          "transactionHash": "0xad1b7b2afce5cb89b0535c64edd8a70411200d13171798942164284be1b429bf",
          "transactionIndex": "0x2",
          "logIndex": "0x1",
          "removed": false
        }
      ],
      "logsBloom": "0x04000000000000000000000000001000000000000000000000000000000000000000000000000000000000000000000000000000000000000000000000200000000000000000000000000000000000000000000200000000000000000004000000000000000000000000000000000000000000000000000000000000000010000000000000000000000000000000000000000000000000000000000000000000020000000000000000000100000000000000000000000000000000000000000000000000000000000004000000000002000000000000000000000800000000000010000000000000000000000000000000000000008000000000000000000080",
      "type": "0x2",
      "transactionHash": "0xad1b7b2afce5cb89b0535c64edd8a70411200d13171798942164284be1b429bf",
      "transactionIndex": "0x2",
      "blockHash": "0xb9f2d8c9388d1eff1bac6bbbdcf9c9756ecccccfec36b052a98ee53e5c7bd006",
      "blockNumber": "0x2c2e068",
      "gasUsed": "0xc7c8",
      "effectiveGasPrice": "0x2",
      "from": "0xe9ea8b6c38647db018a37f1db89303522c3f860c",
      "to": "0xc84133c9e85f09aac39b6dcaa2d43415801f1c5f",
      "contractAddress": null
    },
    {
      "status": "0x1",
      "cumulativeGasUsed": "0x3908e",
      "logs": [
        {
          "address": "0x3213eb712a2a97e06e9f13a1349ad49fa4331443",
          "topics": [
            "0xd547e933094f12a9159076970143ebe73234e64480317844b0dcb36117116de4",
            "0x000000000000000000000000e9ea8b6c38647db018a37f1db89303522c3f860c",
            "0x000000000000000000000000c84133c9e85f09aac39b6dcaa2d43415801f1c5f",
            "0x0000000000000000000000000000000000000000000000000000000000000002"
          ],
          "data": "0x0000000000000000000000000000000000000000000000000000000000989680",
          "blockHash": "0xb9f2d8c9388d1eff1bac6bbbdcf9c9756ecccccfec36b052a98ee53e5c7bd006",
          "blockNumber": "0x2c2e068",
          "transactionHash": "0xfcffa6e7fb6f4eadfa0a3081a97b6882737303f2d4bff02847ca508472b99047",
          "transactionIndex": "0x3",
          "logIndex": "0x2",
          "removed": false
        }
      ],
      "logsBloom": "0x04000000000000000000010000001000000000000100000000000000000000000000000000000000000000000000000000000000000000000000000000004004000000000000000000000000000000000000000000000000000000000000000000000002000000000000000000000000000000000000000000000000000000000000000000800000000000000000000000000000000000000400000000000002000000000000000000000100000000000000000000000000000000000000000000000000000000000000000000000000000000000000000000000800000000000010000000000400000000000000000000000000008000000000000000000000",
      "type": "0x2",
      "transactionHash": "0xfcffa6e7fb6f4eadfa0a3081a97b6882737303f2d4bff02847ca508472b99047",
      "transactionIndex": "0x3",
      "blockHash": "0xb9f2d8c9388d1eff1bac6bbbdcf9c9756ecccccfec36b052a98ee53e5c7bd006",
      "blockNumber": "0x2c2e068",
      "gasUsed": "0x132ea",
      "effectiveGasPrice": "0x2",
      "from": "0xe9ea8b6c38647db018a37f1db89303522c3f860c",
      "to": "0x3213eb712a2a97e06e9f13a1349ad49fa4331443",
      "contractAddress": null
    }
  ],
  "libraries": [],
  "pending": [],
  "returns": {},
  "timestamp": 1758778996617,
  "chain": 43113,
  "commit": "c7b7e86"
}