{
  "transactions": [
    {
      "hash": "0xf853e48264336114eba3b39e7dae18ff3637f51c81e652ff1ebc2803d021bb5e",
      "transactionType": "CALL",
      "contractName": null,
      "contractAddress": "0xc84133c9e85f09aac39b6dcaa2d43415801f1c5f",
      "function": "mint()",
      "arguments": [],
      "transaction": {
        "from": "0xe9ea8b6c38647db018a37f1db89303522c3f860c",
        "to": "0xc84133c9e85f09aac39b6dcaa2d43415801f1c5f",
        "gas": "0x14ddb",
        "value": "0x0",
        "input": "0x1249c58b",
        "nonce": "0x5a",
        "chainId": "0xa869"
      },
      "additionalContracts": [],
      "isFixedGasLimit": false
    },
    {
      "hash": "0x9dbaf0f12fa058d013a8182936c3c0fc16ccbf6f4d0f192561fdacae5cdb8391",
      "transactionType": "CALL",
      "contractName": null,
      "contractAddress": "0xc84133c9e85f09aac39b6dcaa2d43415801f1c5f",
      "function": "approve(address,uint256)",
      "arguments": [
        "0x3213EB712A2A97E06E9F13a1349ad49FA4331443",
        "4"
      ],
      "transaction": {
        "from": "0xe9ea8b6c38647db018a37f1db89303522c3f860c",
        "to": "0xc84133c9e85f09aac39b6dcaa2d43415801f1c5f",
        "gas": "0x113f2",
        "value": "0x0",
        "input": "0x095ea7b30000000000000000000000003213eb712a2a97e06e9f13a1349ad49fa43314430000000000000000000000000000000000000000000000000000000000000004",
        "nonce": "0x5b",
        "chainId": "0xa869"
      },
      "additionalContracts": [],
      "isFixedGasLimit": false
    },
    {
      "hash": "0x25fd60c347fb867685c29a02f3b5ade237fee4cd30bd1fa56af7395ba0f5a45c",
      "transactionType": "CALL",
      "contractName": null,
      "contractAddress": "0x3213eb712a2a97e06e9f13a1349ad49fa4331443",
      "function": "offerMany(address,uint256[],uint256[])",
      "arguments": [
        "0xc84133c9E85F09aac39b6dCAA2d43415801F1c5f",
        "[4]",
        "[10000000]"
      ],
      "transaction": {
        "from": "0xe9ea8b6c38647db018a37f1db89303522c3f860c",
        "to": "0x3213eb712a2a97e06e9f13a1349ad49fa4331443",
        "gas": "0x1f514",
        "value": "0x0",
        "input": "0x6c039efa000000000000000000000000c84133c9e85f09aac39b6dcaa2d43415801f1c5f000000000000000000000000000000000000000000000000000000000000006000000000000000000000000000000000000000000000000000000000000000a00000000000000000000000000000000000000000000000000000000000000001000000000000000000000000000000000000000000000000000000000000000400000000000000000000000000000000000000000000000000000000000000010000000000000000000000000000000000000000000000000000000000989680",
        "nonce": "0x5c",
        "chainId": "0xa869"
      },
      "additionalContracts": [],
      "isFixedGasLimit": false
    }
  ],
  "receipts": [
    {
      "status": "0x1",
      "cumulativeGasUsed": "0xf1b5",
      "logs": [
        {
          "address": "0xc84133c9e85f09aac39b6dcaa2d43415801f1c5f",
          "topics": [
            "0xddf252ad1be2c89b69c2b068fc378daa952ba7f163c4a11628f55a4df523b3ef",
            "0x0000000000000000000000000000000000000000000000000000000000000000",
            "0x000000000000000000000000e9ea8b6c38647db018a37f1db89303522c3f860c",
            "0x0000000000000000000000000000000000000000000000000000000000000005"
          ],
          "data": "0x",
          "blockHash": "0x0a1c6eb92e6144f64c387b8664579c19e1e32fff4d3b4faccf37261456aab7d4",
          "blockNumber": "0x2c2f32d",
          "transactionHash": "0xf853e48264336114eba3b39e7dae18ff3637f51c81e652ff1ebc2803d021bb5e",
          "transactionIndex": "0x0",
          "logIndex": "0x0",
          "removed": false
        }
      ],
      "logsBloom": "0x00000000000000000000000000001000000000000000000000000000000000000000000000000000000000000000000000000000000000000000000000000000000010000000000000000008000000000000000000000000000000000000000000000000020000000000000000000800000000000000000000000010000010000000000000000000000000000000001000000800000000000000000000000000000000000000000000000000000000000000000000000000000000000000000000000002000000000004000000000000000000000000000000000800000020000010000000000000000000000000000000000000000000000000000000000080",
      "type": "0x2",
      "transactionHash": "0xf853e48264336114eba3b39e7dae18ff3637f51c81e652ff1ebc2803d021bb5e",
      "transactionIndex": "0x0",
      "blockHash": "0x0a1c6eb92e6144f64c387b8664579c19e1e32fff4d3b4faccf37261456aab7d4",
      "blockNumber": "0x2c2f32d",
      "gasUsed": "0xf1b5",
      "effectiveGasPrice": "0x2",
      "from": "0xe9ea8b6c38647db018a37f1db89303522c3f860c",
      "to": "0xc84133c9e85f09aac39b6dcaa2d43415801f1c5f",
      "contractAddress": null
    },
    {
      "status": "0x1",
      "cumulativeGasUsed": "0x209a4",
      "logs": [
        {
          "address": "0xc84133c9e85f09aac39b6dcaa2d43415801f1c5f",
          "topics": [
            "0x8c5be1e5ebec7d5bd14f71427d1e84f3dd0314c0f7b2291e5b200ac8c7c3b925",
            "0x000000000000000000000000e9ea8b6c38647db018a37f1db89303522c3f860c",
            "0x0000000000000000000000003213eb712a2a97e06e9f13a1349ad49fa4331443",
            "0x0000000000000000000000000000000000000000000000000000000000000004"
          ],
          "data": "0x",
          "blockHash": "0xbe8b8a31e8efd6623829fa9b03573c2424538c567e2c6442d4b7a1c622092c21",
          "blockNumber": "0x2c2f32e",
          "transactionHash": "0x9dbaf0f12fa058d013a8182936c3c0fc16ccbf6f4d0f192561fdacae5cdb8391",
          "transactionIndex": "0x1",
          "logIndex": "0x5",
          "removed": false
        }
      ],
      "logsBloom": "0x00000000000000000000000000001000000000000000000000000000000000000000000000000000000000000000000000000000000000000000000000200000000000000000000000000000000000000000000200000000000000000004000008000000000000000000000000000000000000000000000000000000000010000000000000000000000000000000000000000000000000000000000000000000020000000000000000000000000000000000000000000000002000000000000000000000000000000004000000000002000000008000000000000800000000000010000000000000000000000000000000000000000000000000000000000080",
      "type": "0x2",
      "transactionHash": "0x9dbaf0f12fa058d013a8182936c3c0fc16ccbf6f4d0f192561fdacae5cdb8391",
      "transactionIndex": "0x1",
      "blockHash": "0xbe8b8a31e8efd6623829fa9b03573c2424538c567e2c6442d4b7a1c622092c21",
      "blockNumber": "0x2c2f32e",
      "gasUsed": "0xc7c8",
      "effectiveGasPrice": "0x2",
      "from": "0xe9ea8b6c38647db018a37f1db89303522c3f860c",
      "to": "0xc84133c9e85f09aac39b6dcaa2d43415801f1c5f",
      "contractAddress": null
    },
    {
      "status": "0x1",
      "cumulativeGasUsed": "0x37f5a",
      "logs": [
        {
          "address": "0x3213eb712a2a97e06e9f13a1349ad49fa4331443",
          "topics": [
            "0xd547e933094f12a9159076970143ebe73234e64480317844b0dcb36117116de4",
            "0x000000000000000000000000e9ea8b6c38647db018a37f1db89303522c3f860c",
            "0x000000000000000000000000c84133c9e85f09aac39b6dcaa2d43415801f1c5f",
            "0x0000000000000000000000000000000000000000000000000000000000000004"
          ],
          "data": "0x0000000000000000000000000000000000000000000000000000000000989680",
          "blockHash": "0xbe8b8a31e8efd6623829fa9b03573c2424538c567e2c6442d4b7a1c622092c21",
          "blockNumber": "0x2c2f32e",
          "transactionHash": "0x25fd60c347fb867685c29a02f3b5ade237fee4cd30bd1fa56af7395ba0f5a45c",
          "transactionIndex": "0x2",
          "logIndex": "0x6",
          "removed": false
        }
      ],
      "logsBloom": "0x00000000000000000000010000001000000000000100000000000000000000000000000000000000000000000000000000000000000000000000000000004004000000000000000000000000000000000000000000000000000000000000000008000002000000000000000000000000000000000000000000000000000000000000000000800000000000000000000000000000000000000400000000000002000000000000000000000000000000000000000000000000002000000000000000000000000000000000000000000000000000008000000000000800000000000010000000000400000000000000000000000000000000000000000000000000",
      "type": "0x2",
      "transactionHash": "0x25fd60c347fb867685c29a02f3b5ade237fee4cd30bd1fa56af7395ba0f5a45c",
      "transactionIndex": "0x2",
      "blockHash": "0xbe8b8a31e8efd6623829fa9b03573c2424538c567e2c6442d4b7a1c622092c21",
      "blockNumber": "0x2c2f32e",
      "gasUsed": "0x175b6",
      "effectiveGasPrice": "0x2",
      "from": "0xe9ea8b6c38647db018a37f1db89303522c3f860c",
      "to": "0x3213eb712a2a97e06e9f13a1349ad49fa4331443",
      "contractAddress": null
    }
  ],
  "libraries": [],
  "pending": [],
  "returns": {},
  "timestamp": 1758789933194,
  "chain": 43113,
  "commit": "31e294b"
}