{
  "transactions": [
    {
      "hash": "0xd9bbbbe9f3e16a85d2e215fe8e46d0f051713fa3b143e58082d935aeeeed901f",
      "transactionType": "CALL",
      "contractName": null,
      "contractAddress": "0x8c85a0c0d19be8d163c492451779a2cecc81da9c",
      "function": "mintNFT(string)",
      "arguments": [
        "ipfs://bafybeibc5sgo2plmjkq2tzmhrn54bk3crhnc23zd2msg4ea7a4pxrkgfna/4356"
      ],
      "transaction": {
        "from": "0xe9ea8b6c38647db018a37f1db89303522c3f860c",
        "to": "0x8c85a0c0d19be8d163c492451779a2cecc81da9c",
        "gas": "0x36ee1",
        "value": "0x0",
        "input": "0xfb37e88300000000000000000000000000000000000000000000000000000000000000200000000000000000000000000000000000000000000000000000000000000047697066733a2f2f6261667962656962633573676f32706c6d6a6b7132747a6d68726e3534626b336372686e6332337a64326d73673465613761347078726b67666e612f3433353600000000000000000000000000000000000000000000000000",
        "nonce": "0x62",
        "chainId": "0xa869"
      },
      "additionalContracts": [],
      "isFixedGasLimit": false
    },
    {
      "hash": "0x94438bd94031a80f4ed1d311982cdcdf1dcd6fe431ac889022935ba1c85fbfee",
      "transactionType": "CALL",
      "contractName": null,
      "contractAddress": "0x8c85a0c0d19be8d163c492451779a2cecc81da9c",
      "function": "approve(address,uint256)",
      "arguments": [
        "0x3213EB712A2A97E06E9F13a1349ad49FA4331443",
        "2"
      ],
      "transaction": {
        "from": "0xe9ea8b6c38647db018a37f1db89303522c3f860c",
        "to": "0x8c85a0c0d19be8d163c492451779a2cecc81da9c",
        "gas": "0x1240d",
        "value": "0x0",
        "input": "0x095ea7b30000000000000000000000003213eb712a2a97e06e9f13a1349ad49fa43314430000000000000000000000000000000000000000000000000000000000000002",
        "nonce": "0x63",
        "chainId": "0xa869"
      },
      "additionalContracts": [],
      "isFixedGasLimit": false
    },
    {
      "hash": "0x379732520ad455e9e8d2e557174358a99279bd8c4d63c48cb66ebef4f59fd307",
      "transactionType": "CALL",
      "contractName": null,
      "contractAddress": "0x3213eb712a2a97e06e9f13a1349ad49fa4331443",
      "function": "offerMany(address,uint256[],uint256[])",
      "arguments": [
        "0x8c85a0C0D19BE8d163C492451779A2CECC81Da9c",
        "[2]",
        "[19300000]"
      ],
      "transaction": {
        "from": "0xe9ea8b6c38647db018a37f1db89303522c3f860c",
        "to": "0x3213eb712a2a97e06e9f13a1349ad49fa4331443",
        "gas": "0x198c3",
        "value": "0x0",
        "input": "0x6c039efa0000000000000000000000008c85a0c0d19be8d163c492451779a2cecc81da9c000000000000000000000000000000000000000000000000000000000000006000000000000000000000000000000000000000000000000000000000000000a00000000000000000000000000000000000000000000000000000000000000001000000000000000000000000000000000000000000000000000000000000000200000000000000000000000000000000000000000000000000000000000000010000000000000000000000000000000000000000000000000000000001267ea0",
        "nonce": "0x64",
        "chainId": "0xa869"
      },
      "additionalContracts": [],
      "isFixedGasLimit": false
    }
  ],
  "receipts": [
    {
      "status": "0x1",
      "cumulativeGasUsed": "0x258f2",
      "logs": [
        {
          "address": "0x8c85a0c0d19be8d163c492451779a2cecc81da9c",
          "topics": [
            "0xddf252ad1be2c89b69c2b068fc378daa952ba7f163c4a11628f55a4df523b3ef",
            "0x0000000000000000000000000000000000000000000000000000000000000000",
            "0x000000000000000000000000e9ea8b6c38647db018a37f1db89303522c3f860c",
            "0x0000000000000000000000000000000000000000000000000000000000000002"
          ],
          "data": "0x",
          "blockHash": "0x34913ca07b806fb83cd605e15de016a3c350a6d11a334b3742265d8b35ad6c69",
          "blockNumber": "0x2c30b2e",
          "transactionHash": "0xd9bbbbe9f3e16a85d2e215fe8e46d0f051713fa3b143e58082d935aeeeed901f",
          "transactionIndex": "0x0",
          "logIndex": "0x0",
          "removed": false
        }
      ],
      "logsBloom": "0x04000000080000000000000000001000000000000000000000000000000000000000000000000000000000000000000200000000000000000000000000000000000000000000000000000008000000000000000000000000000000000000000000000000020000000000000000000800000000000000000000000010000000000000000000000000000000000000000000000200000000000000000000000000000000000000000000000100000000000000000000000000000000000000000000000002000000000000000000000000000000000000000000000800000020000010000000000000000000000000000000000000008000000000000000000000",
      "type": "0x2",
      "transactionHash": "0xd9bbbbe9f3e16a85d2e215fe8e46d0f051713fa3b143e58082d935aeeeed901f",
      "transactionIndex": "0x0",
      "blockHash": "0x34913ca07b806fb83cd605e15de016a3c350a6d11a334b3742265d8b35ad6c69",
      "blockNumber": "0x2c30b2e",
      "gasUsed": "0x258f2",
      "effectiveGasPrice": "0x2",
      "from": "0xe9ea8b6c38647db018a37f1db89303522c3f860c",
      "to": "0x8c85a0c0d19be8d163c492451779a2cecc81da9c",
      "contractAddress": null
    },
    {
      "status": "0x1",
      "cumulativeGasUsed": "0xc7b2",
      "logs": [
        {
          "address": "0x8c85a0c0d19be8d163c492451779a2cecc81da9c",
          "topics": [
            "0x8c5be1e5ebec7d5bd14f71427d1e84f3dd0314c0f7b2291e5b200ac8c7c3b925",
            "0x000000000000000000000000e9ea8b6c38647db018a37f1db89303522c3f860c",
            "0x0000000000000000000000003213eb712a2a97e06e9f13a1349ad49fa4331443",
            "0x0000000000000000000000000000000000000000000000000000000000000002"
          ],
          "data": "0x",
          "blockHash": "0x2d063f996cd6ca4296572fee7e292614e1ba0c31fca5a01a7c8b075bf9bde604",
          "blockNumber": "0x2c30b2f",
          "transactionHash": "0x94438bd94031a80f4ed1d311982cdcdf1dcd6fe431ac889022935ba1c85fbfee",
          "transactionIndex": "0x0",
          "logIndex": "0x0",
          "removed": false
        }
      ],
      "logsBloom": "0x04000000080000000000000000001000000000000000000000000000000000000000000000000000000000000000000200000000000000000000000000200000000000000000000000000000000000000000000200000000000000000004000000000000000000000000000000000000000000000000000000000000000000000000000000000000000000000000000000000200000000000000000000000000020000000000000000000100000000000000000000000000000000000000000000000000000000000000000000000002000000000000000000000800000000000010000000000000000000000000000000000000008000000000000000000000",
      "type": "0x2",
      "transactionHash": "0x94438bd94031a80f4ed1d311982cdcdf1dcd6fe431ac889022935ba1c85fbfee",
      "transactionIndex": "0x0",
      "blockHash": "0x2d063f996cd6ca4296572fee7e292614e1ba0c31fca5a01a7c8b075bf9bde604",
      "blockNumber": "0x2c30b2f",
      "gasUsed": "0xc7b2",
      "effectiveGasPrice": "0x2",
      "from": "0xe9ea8b6c38647db018a37f1db89303522c3f860c",
      "to": "0x8c85a0c0d19be8d163c492451779a2cecc81da9c",
      "contractAddress": null
    },
    {
      "status": "0x1",
      "cumulativeGasUsed": "0x1fa92",
      "logs": [
        {
          "address": "0x3213eb712a2a97e06e9f13a1349ad49fa4331443",
          "topics": [
            "0xd547e933094f12a9159076970143ebe73234e64480317844b0dcb36117116de4",
            "0x000000000000000000000000e9ea8b6c38647db018a37f1db89303522c3f860c",
            "0x0000000000000000000000008c85a0c0d19be8d163c492451779a2cecc81da9c",
            "0x0000000000000000000000000000000000000000000000000000000000000002"
          ],
          "data": "0x0000000000000000000000000000000000000000000000000000000001267ea0",
          "blockHash": "0x2d063f996cd6ca4296572fee7e292614e1ba0c31fca5a01a7c8b075bf9bde604",
          "blockNumber": "0x2c30b2f",
          "transactionHash": "0x379732520ad455e9e8d2e557174358a99279bd8c4d63c48cb66ebef4f59fd307",
          "transactionIndex": "0x1",
          "logIndex": "0x1",
          "removed": false
        }
      ],
      "logsBloom": "0x04000000000000000000000000001000000000000000000000000000000000000000000000000000000000000000000000000000000000400000000000004004000000000000000000000000000000000000000000000000000000000000000000000002000000000000000000000000000000000000000000000000000000000000000000800000000000000000000000000000000000000400000000000002000000000000000000000100000001000000000000000000000000000000000000000000000000000000000000000000000000000000000000000800000000000010000000000000000000000000000000000000008000000000010000000000",
      "type": "0x2",
      "transactionHash": "0x379732520ad455e9e8d2e557174358a99279bd8c4d63c48cb66ebef4f59fd307",
      "transactionIndex": "0x1",
      "blockHash": "0x2d063f996cd6ca4296572fee7e292614e1ba0c31fca5a01a7c8b075bf9bde604",
      "blockNumber": "0x2c30b2f",
      "gasUsed": "0x132e0",
      "effectiveGasPrice": "0x2",
      "from": "0xe9ea8b6c38647db018a37f1db89303522c3f860c",
      "to": "0x3213eb712a2a97e06e9f13a1349ad49fa4331443",
      "contractAddress": null
    }
  ],
  "libraries": [],
  "pending": [],
  "returns": {},
  "timestamp": 1758805778336,
  "chain": 43113,
  "commit": "31e294b"
}