{
  "transactions": [
    {
      "hash": "0x762fa60fa3f25b88cf0d39243be11785c5e8f3a7335b24041235fc00c16a9da4",
      "transactionType": "CALL",
      "contractName": null,
      "contractAddress": "0x3213eb712a2a97e06e9f13a1349ad49fa4331443",
      "function": "cancelListing(address,uint256)",
      "arguments": [
        "0xc84133c9E85F09aac39b6dCAA2d43415801F1c5f",
        "1"
      ],
      "transaction": {
        "from": "0xe9ea8b6c38647db018a37f1db89303522c3f860c",
        "to": "0x3213eb712a2a97e06e9f13a1349ad49fa4331443",
        "gas": "0xf5fa",
        "value": "0x0",
        "input": "0xb2ddee06000000000000000000000000c84133c9e85f09aac39b6dcaa2d43415801f1c5f0000000000000000000000000000000000000000000000000000000000000001",
        "nonce": "0x53",
        "chainId": "0xa869"
      },
      "additionalContracts": [],
      "isFixedGasLimit": false
    },
    {
      "hash": "0xaf7aa6be5b82e9d70bf5b2ff3b3fc822ff3e6dc5c29e4ee30159260aa0d605dc",
      "transactionType": "CALL",
      "contractName": null,
      "contractAddress": "0x3213eb712a2a97e06e9f13a1349ad49fa4331443",
      "function": "cancelListing(address,uint256)",
      "arguments": [
        "0xc84133c9E85F09aac39b6dCAA2d43415801F1c5f",
        "2"
      ],
      "transaction": {
        "from": "0xe9ea8b6c38647db018a37f1db89303522c3f860c",
        "to": "0x3213eb712a2a97e06e9f13a1349ad49fa4331443",
        "gas": "0xdaa7",
        "value": "0x0",
        "input": "0xb2ddee06000000000000000000000000c84133c9e85f09aac39b6dcaa2d43415801f1c5f0000000000000000000000000000000000000000000000000000000000000002",
        "nonce": "0x54",
        "chainId": "0xa869"
      },
      "additionalContracts": [],
      "isFixedGasLimit": false
    }
  ],
  "receipts": [
    {
      "status": "0x1",
      "cumulativeGasUsed": "0x2b34f",
      "logs": [
        {
          "address": "0x3213eb712a2a97e06e9f13a1349ad49fa4331443",
          "topics": [
            "0x9ba1a3cb55ce8d63d072a886f94d2a744f50cddf82128e897d0661f5ec623158",
            "0x000000000000000000000000e9ea8b6c38647db018a37f1db89303522c3f860c",
            "0x000000000000000000000000c84133c9e85f09aac39b6dcaa2d43415801f1c5f",
            "0x0000000000000000000000000000000000000000000000000000000000000001"
          ],
          "data": "0x",
          "blockHash": "0x5ef4dd97c024ce2298471b164c95377a41e506a14c057e5d7fe226b09ebb1beb",
          "blockNumber": "0x2c2e0bb",
          "transactionHash": "0x762fa60fa3f25b88cf0d39243be11785c5e8f3a7335b24041235fc00c16a9da4",
          "transactionIndex": "0x1",
          "logIndex": "0x3",
          "removed": false
        }
      ],
      "logsBloom": "0x00000000000000001000010000001000000000000100000000000000000000000001000000000000000000000000000000000000000000000000000000040000000000000000000000000000000000000000000000040000000000000000000000000002000000000000000000000000000000000000000000000000000000000000000000800000000000000000000000000000000000000000000000000002000000000000000000000000000000000000000000000000000000000000000000000000000000000800000000000000000000000000000000000800000040000010000000000400000000000000000000000000000000000000000000000000",
      "type": "0x2",
      "transactionHash": "0x762fa60fa3f25b88cf0d39243be11785c5e8f3a7335b24041235fc00c16a9da4",
      "transactionIndex": "0x1",
      "blockHash": "0x5ef4dd97c024ce2298471b164c95377a41e506a14c057e5d7fe226b09ebb1beb",
      "blockNumber": "0x2c2e0bb",
      "gasUsed": "0xc5e1",
      "effectiveGasPrice": "0x2",
      "from": "0xe9ea8b6c38647db018a37f1db89303522c3f860c",
      "to": "0x3213eb712a2a97e06e9f13a1349ad49fa4331443",
      "contractAddress": null
    },
    {
      "status": "0x1",
      "cumulativeGasUsed": "0x37930",
      "logs": [
        {
          "address": "0x3213eb712a2a97e06e9f13a1349ad49fa4331443",
          "topics": [
            "0x9ba1a3cb55ce8d63d072a886f94d2a744f50cddf82128e897d0661f5ec623158",
            "0x000000000000000000000000e9ea8b6c38647db018a37f1db89303522c3f860c",
            "0x000000000000000000000000c84133c9e85f09aac39b6dcaa2d43415801f1c5f",
            "0x0000000000000000000000000000000000000000000000000000000000000002"
          ],
          "data": "0x",
          "blockHash": "0x5ef4dd97c024ce2298471b164c95377a41e506a14c057e5d7fe226b09ebb1beb",
          "blockNumber": "0x2c2e0bb",
          "transactionHash": "0xaf7aa6be5b82e9d70bf5b2ff3b3fc822ff3e6dc5c29e4ee30159260aa0d605dc",
          "transactionIndex": "0x2",
          "logIndex": "0x4",
          "removed": false
        }
      ],
      "logsBloom": "0x04000000000000001000010000001000000000000100000000000000000000000001000000000000000000000000000000000000000000000000000000000000000000000000000000000000000000000000000000000000000000000000000000000002000000000000000000000000000000000000000000000000000000000000000000800000000000000000000000000000000000000000000000000002000000000000000000000100000000000000000000000000000000000000000000000000000000000800000000000000000000000000000000000800000000000010000000000400000000000000000000000000008000000000000000000000",
      "type": "0x2",
      "transactionHash": "0xaf7aa6be5b82e9d70bf5b2ff3b3fc822ff3e6dc5c29e4ee30159260aa0d605dc",
      "transactionIndex": "0x2",
      "blockHash": "0x5ef4dd97c024ce2298471b164c95377a41e506a14c057e5d7fe226b09ebb1beb",
      "blockNumber": "0x2c2e0bb",
      "gasUsed": "0xc5e1",
      "effectiveGasPrice": "0x2",
      "from": "0xe9ea8b6c38647db018a37f1db89303522c3f860c",
      "to": "0x3213eb712a2a97e06e9f13a1349ad49fa4331443",
      "contractAddress": null
    }
  ],
  "libraries": [],
  "pending": [],
  "returns": {},
  "timestamp": 1758779188263,
  "chain": 43113,
  "commit": "c7b7e86"
}